{
  "_format": "hh-sol-artifact-1",
  "contractName": "DataVault",
  "sourceName": "contracts/Vault.sol",
  "abi": [
    {
      "inputs": [],
      "stateMutability": "nonpayable",
      "type": "constructor"
    },
    {
      "anonymous": false,
      "inputs": [
        {
          "indexed": true,
          "internalType": "address",
          "name": "user",
          "type": "address"
        },
        {
          "indexed": true,
          "internalType": "address",
          "name": "app",
          "type": "address"
        },
        {
          "indexed": false,
          "internalType": "uint256",
          "name": "expiry",
          "type": "uint256"
        }
      ],
      "name": "AccessGranted",
      "type": "event"
    },
    {
      "anonymous": false,
      "inputs": [
        {
          "indexed": true,
          "internalType": "address",
          "name": "user",
          "type": "address"
        },
        {
          "indexed": true,
          "internalType": "address",
          "name": "app",
          "type": "address"
        }
      ],
      "name": "AccessRevoked",
      "type": "event"
    },
    {
      "anonymous": false,
      "inputs": [
        {
          "indexed": true,
          "internalType": "address",
          "name": "app",
          "type": "address"
        },
        {
          "indexed": true,
          "internalType": "address",
          "name": "user",
          "type": "address"
        },
        {
          "indexed": false,
          "internalType": "uint256",
          "name": "timestamp",
          "type": "uint256"
        }
      ],
      "name": "DataAccessed",
      "type": "event"
    },
    {
      "inputs": [
        {
          "internalType": "address",
          "name": "",
          "type": "address"
        },
        {
          "internalType": "address",
          "name": "",
          "type": "address"
        }
      ],
      "name": "accessList",
      "outputs": [
        {
          "internalType": "uint256",
          "name": "expiry",
          "type": "uint256"
        },
        {
          "internalType": "bool",
          "name": "granted",
          "type": "bool"
        }
      ],
      "stateMutability": "view",
      "type": "function"
    },
    {
      "inputs": [
        {
          "internalType": "address",
          "name": "app",
          "type": "address"
        },
        {
          "internalType": "uint256",
          "name": "duration",
          "type": "uint256"
        }
      ],
      "name": "grantAccess",
      "outputs": [],
      "stateMutability": "nonpayable",
      "type": "function"
    },
    {
      "inputs": [
        {
          "internalType": "address",
          "name": "user",
          "type": "address"
        }
      ],
      "name": "retrieveData",
      "outputs": [
        {
          "internalType": "string",
          "name": "",
          "type": "string"
        }
      ],
      "stateMutability": "view",
      "type": "function"
    },
    {
      "inputs": [
        {
          "internalType": "address",
          "name": "app",
          "type": "address"
        }
      ],
      "name": "revokeAccess",
      "outputs": [],
      "stateMutability": "nonpayable",
      "type": "function"
    },
    {
      "inputs": [
        {
          "internalType": "bytes",
          "name": "data",
          "type": "bytes"
        }
      ],
      "name": "storeData",
      "outputs": [],
      "stateMutability": "nonpayable",
      "type": "function"
    }
  ],
  "bytecode": "0x6080604052348015600f57600080fd5b50610dda8061001f6000396000f3fe608060405234801561001057600080fd5b50600436106100575760003560e01c80632a77d7071461005c578063778146461461008c57806385e68531146100bd5780639df89256146100d9578063ac5c8535146100f5575b600080fd5b6100766004803603810190610071919061066b565b610111565b6040516100839190610728565b60405180910390f35b6100a660048036038101906100a1919061074a565b610337565b6040516100b49291906107be565b60405180910390f35b6100d760048036038101906100d2919061066b565b610375565b005b6100f360048036038101906100ee9190610813565b61046a565b005b61010f600480360381019061010a9190610988565b6105aa565b005b6060600160008373ffffffffffffffffffffffffffffffffffffffff1673ffffffffffffffffffffffffffffffffffffffff16815260200190815260200160002060003373ffffffffffffffffffffffffffffffffffffffff1673ffffffffffffffffffffffffffffffffffffffff16815260200190815260200160002060010160009054906101000a900460ff16801561022a575042600160008473ffffffffffffffffffffffffffffffffffffffff1673ffffffffffffffffffffffffffffffffffffffff16815260200190815260200160002060003373ffffffffffffffffffffffffffffffffffffffff1673ffffffffffffffffffffffffffffffffffffffff16815260200190815260200160002060000154115b610269576040517f08c379a000000000000000000000000000000000000000000000000000000000815260040161026090610a1d565b60405180910390fd5b6000808373ffffffffffffffffffffffffffffffffffffffff1673ffffffffffffffffffffffffffffffffffffffff16815260200190815260200160002080546102b290610a6c565b80601f01602080910402602001604051908101604052809291908181526020018280546102de90610a6c565b801561032b5780601f106103005761010080835404028352916020019161032b565b820191906000526020600020905b81548152906001019060200180831161030e57829003601f168201915b50505050509050919050565b6001602052816000526040600020602052806000526040600020600091509150508060000154908060010160009054906101000a900460ff16905082565b6000600160003373ffffffffffffffffffffffffffffffffffffffff1673ffffffffffffffffffffffffffffffffffffffff16815260200190815260200160002060008373ffffffffffffffffffffffffffffffffffffffff1673ffffffffffffffffffffffffffffffffffffffff16815260200190815260200160002060010160006101000a81548160ff0219169083151502179055508073ffffffffffffffffffffffffffffffffffffffff163373ffffffffffffffffffffffffffffffffffffffff167f825c8be24eb0df19500f63e86c29e7d0d951e73056b889b891d85e40938d9b6e60405160405180910390a350565b604051806040016040528082426104819190610acc565b815260200160011515815250600160003373ffffffffffffffffffffffffffffffffffffffff1673ffffffffffffffffffffffffffffffffffffffff16815260200190815260200160002060008473ffffffffffffffffffffffffffffffffffffffff1673ffffffffffffffffffffffffffffffffffffffff1681526020019081526020016000206000820151816000015560208201518160010160006101000a81548160ff0219169083151502179055509050508173ffffffffffffffffffffffffffffffffffffffff163373ffffffffffffffffffffffffffffffffffffffff167f65d0cc1e52d49938ca4ad9f423c79c1b84d914b9a683fbc5d3f93ac3cc5635f583426105919190610acc565b60405161059e9190610b00565b60405180910390a35050565b806000803373ffffffffffffffffffffffffffffffffffffffff1673ffffffffffffffffffffffffffffffffffffffff16815260200190815260200160002090816105f59190610cd2565b5050565b6000604051905090565b600080fd5b600080fd5b600073ffffffffffffffffffffffffffffffffffffffff82169050919050565b60006106388261060d565b9050919050565b6106488161062d565b811461065357600080fd5b50565b6000813590506106658161063f565b92915050565b60006020828403121561068157610680610603565b5b600061068f84828501610656565b91505092915050565b600081519050919050565b600082825260208201905092915050565b60005b838110156106d25780820151818401526020810190506106b7565b60008484015250505050565b6000601f19601f8301169050919050565b60006106fa82610698565b61070481856106a3565b93506107148185602086016106b4565b61071d816106de565b840191505092915050565b6000602082019050818103600083015261074281846106ef565b905092915050565b6000806040838503121561076157610760610603565b5b600061076f85828601610656565b925050602061078085828601610656565b9150509250929050565b6000819050919050565b61079d8161078a565b82525050565b60008115159050919050565b6107b8816107a3565b82525050565b60006040820190506107d36000830185610794565b6107e060208301846107af565b9392505050565b6107f08161078a565b81146107fb57600080fd5b50565b60008135905061080d816107e7565b92915050565b6000806040838503121561082a57610829610603565b5b600061083885828601610656565b9250506020610849858286016107fe565b9150509250929050565b600080fd5b600080fd5b7f4e487b7100000000000000000000000000000000000000000000000000000000600052604160045260246000fd5b610895826106de565b810181811067ffffffffffffffff821117156108b4576108b361085d565b5b80604052505050565b60006108c76105f9565b90506108d3828261088c565b919050565b600067ffffffffffffffff8211156108f3576108f261085d565b5b6108fc826106de565b9050602081019050919050565b82818337600083830152505050565b600061092b610926846108d8565b6108bd565b90508281526020810184848401111561094757610946610858565b5b610952848285610909565b509392505050565b600082601f83011261096f5761096e610853565b5b813561097f848260208601610918565b91505092915050565b60006020828403121561099e5761099d610603565b5b600082013567ffffffffffffffff8111156109bc576109bb610608565b5b6109c88482850161095a565b91505092915050565b7f4163636573732065787069726564206f72206e6f74206772616e746564000000600082015250565b6000610a07601d836106a3565b9150610a12826109d1565b602082019050919050565b60006020820190508181036000830152610a36816109fa565b9050919050565b7f4e487b7100000000000000000000000000000000000000000000000000000000600052602260045260246000fd5b60006002820490506001821680610a8457607f821691505b602082108103610a9757610a96610a3d565b5b50919050565b7f4e487b7100000000000000000000000000000000000000000000000000000000600052601160045260246000fd5b6000610ad78261078a565b9150610ae28361078a565b9250828201905080821115610afa57610af9610a9d565b5b92915050565b6000602082019050610b156000830184610794565b92915050565b600081519050919050565b60008190508160005260206000209050919050565b60006020601f8301049050919050565b600082821b905092915050565b600060088302610b887fffffffffffffffffffffffffffffffffffffffffffffffffffffffffffffffff82610b4b565b610b928683610b4b565b95508019841693508086168417925050509392505050565b6000819050919050565b6000610bcf610bca610bc58461078a565b610baa565b61078a565b9050919050565b6000819050919050565b610be983610bb4565b610bfd610bf582610bd6565b848454610b58565b825550505050565b600090565b610c12610c05565b610c1d818484610be0565b505050565b5b81811015610c4157610c36600082610c0a565b600181019050610c23565b5050565b601f821115610c8657610c5781610b26565b610c6084610b3b565b81016020851015610c6f578190505b610c83610c7b85610b3b565b830182610c22565b50505b505050565b600082821c905092915050565b6000610ca960001984600802610c8b565b1980831691505092915050565b6000610cc28383610c98565b9150826002028217905092915050565b610cdb82610b1b565b67ffffffffffffffff811115610cf457610cf361085d565b5b610cfe8254610a6c565b610d09828285610c45565b600060209050601f831160018114610d3c5760008415610d2a578287015190505b610d348582610cb6565b865550610d9c565b601f198416610d4a86610b26565b60005b82811015610d7257848901518255600182019150602085019450602081019050610d4d565b86831015610d8f5784890151610d8b601f891682610c98565b8355505b6001600288020188555050505b50505050505056fea26469706673582212203910fa78d952b5ae732e910b1cc032121e82f291b27eeb50850ef22b3bdaa2b364736f6c634300081b0033",
  "linkReferences": {},
  "deployedLinkReferences": {}
}